:1070000017C0FFC00000FFC00000FFC0000000006C
:107010000080FFC00000FFC00000FFC000000000B3
:107020000080FFC00000FFC0000005B801030000A1
:107030003F9A539A209A11241FBECFEFD4E0DEBFAF
:10704000CDBF84B78EBB14BE88E1809360001092E0
:10705000600085B1897F85B984B1866084B92D9A35
:10706000259A81E58CBD81E08DBD85E08A95F1F79B
:1070700000002D9880EC4CD12D9A8FE891E001977B
:10708000F1F700C000002D9882E042D180E040D1AD
:10709000C0E0D0E0FE01EE5FFF48849139D1219637
:1070A000CD32D105B9F72D9A64E280E638D160E29D
:1070B00080E735D160E08FE032D1479A8FE39CE9D9
:1070C0000197F1F700C00000109285001092840033
:1070D0001092800085E080938100CFEFE12C30EEAC
:1070E000D32E0FC080918400909185008032944F00
:1070F00020F04798C9D0FC2E03C0FC2E01C0FC2E06
:10710000CF2D1BD18F3371F310928100982F907C7B
:10711000B1F78F739C2F9F5FF0908C01F91639F0B7
:1071200090938C0160E0806C44D1FC2EE9CF98B143
:10713000905898B9813069F482E0809388018093F7
:10714000890110928A01D0928B0164E081E431D1EF
:10715000D7CF823021F5209188019091890130911B
:107160008D01343009F08BC030918A01303208F043
:1071700086C0122F00E09801292B203E310508F02F
:107180007EC0309301012093000180918B01809398
:10719000020164E082E40DD1EE24E394B1CF8330A8
:1071A00009F05CC090918D01943011F0E12C67C022
:1071B000209102012032D0F7EE20C1F3909184019A
:1071C00097FF07C09F779093840190930301EE246B
:1071D000E39490918401309103019313E7CF392F09
:1071E00031503093030134E0239FF0011124EC5F10
:1071F000FE4F409188015091890160918A01709100
:107200008B0140835183628373832F5F209302013C
:10721000911176CF2032F1F4C0910001D09101019B
:10722000D0938801C0938901C03ED10520F092E03F
:1072300090938D0124C064E071E0CE0130D01092B3
:1072400002012196D0930101C093000162E083E422
:10725000B0D056CF60E083E4ACD052CF843079F424
:1072600060E084E4A6D03FEF80E792E031508040B8
:107270009040E1F700C00000479806D041CF6091F0
:107280008D01806896D03CCF85B78C7F982F916018
:1072900095BF85BF1CBC1DBC1F921F920895CF9344
:1072A000DF939695982F88279795879523E0FC0183
:1072B00020935700E89507B600FCFDCF20E030E0B2
:1072C000C1E0DB01A20FB31FDC91F901E80FF91F48
:1072D00011965C9140E0DA01AD0FB11D0D01C09334
:1072E0005700E89511242E5F3F4F2038310549F7AC
:1072F00025E0FC0120935700E89507B600FCFDCF80
:1073000081E180935700E895DF91CF9108952D9802
:107310008EBD0DB407FEFDCF8EB5992708952D982B
:10732000282F82E0F5DF822FF3DF862FF1DF65C0A3
:10733000EEDFEEDF62C08FE3089580EBF9DF482FC8
:10734000222747FD25E746FD25E62223A1F3887184
:107350008823F1F483E0DBDF822FDADFD9DF282F07
:107360002F7024502530A4F420938D01D1DF8F3F5E
:1073700079F4CEDF382FCCDF80938C01C9DF809386
:107380008401F1E0E8E82A951CF0C2DF8193FBCF8D
:107390002D9A47FD52E046FD51E085E0B8DF8CE2D2
:1073A000B7DF852FB5DF80E0B3DF832F26C08FE303
:1073B0000895382F80EABCDF82FDFCCF80E4A7DF90
:1073C0008FEFA6DF80ECA4DFA3DFA2DF862F8C5F28
:1073D0009FDF8FEF9DDF832F9BDF80918C0198DFF4
:1073E0008091840195DFF1E0E8E86A951CF08191D5
:0E73F0008FDFFBCF2D9A81E88ADF2D9A08955A
:040000030000700089
:00000001FF
